:1000000002003602000000000000000200000000B4
:1000100000000002000000000000000200000000DC
:0E0020000000000200000000000000020000CE
:08002E00E493F608A3D9F922BE
:10003600758180758001D3E50892E0F508E5083002
:10004600E00F7801E580088002C333D8FCF5808094
:100056000D7801E580088002C313D8FCF580E580A1
:1000660064807007C3E50892E0F508E580640170D6
:1000760007D3E50892E0F5087EA37F1EDFFEDEFCCF
:050086000080BA80FEBD
:00000001FF
