:100000000200520200000000000000020000000098
:1000100000000002000000000000000200000000DC
:0E0020000000000200000000000000020000CE
:08002E00E493F608A3D9F922BE
:10003600758000D3E5B092E2F5B0C3E50892E0F52D
:0C00460008758001D3E50892E1F508225E
:100052007581801136E5B020E249E50820E042E5ED
:100062000830E10F7801E580088002C333D8FCF53F
:1000720080800D7801E580088002C313D8FCF580EA
:10008200E58064807007C3E50892E1F508E58064C5
:10009200017007D3E50892E1F508D3E50892E0F58F
:0E00A200088007C3E50892E0F50880A980FEFB
:00000001FF
