:100000000200D90200000000000000020000000011
:1000100000000002000000000000000200000000DC
:0E0020000000000200000000000000020000CE
:10002E00BD000BB90029E88CF084F8ACF022E4CDC9
:10003E00FF75F008E828F8E933F9ED33FDE99CED9A
:10004E009F4005FDE99CF908D5F0E9E4C9FC22ECD6
:10005E00FFF5F0E98420D21CF9ACF075F008E82821
:10006E00F8EC33FC40079F5006D5F0F222C39FFCFC
:05007E0008D5F0EA22A4
:08008300E493F608A3D9F92269
:10008B00C2D5ED30E709B2D5E4C39CFCE49DFDE994
:10009B0030E715B2D5E4C398F8E499F912002EC3F2
:1000AB00E49CFCE49DFD800312002E30D507C3E4D5
:0600BB0098F8E499F92217
:1000C100758000D3E5B092E2F5B0C3E50A92E0F5A0
:0800D1000A7508007509002200
:1000D90075818011C1E5B020E22CE50A20E0257C7C
:1000E900027D00A808A909118BA804A905850008A3
:1000F900850109740128F508740039F509D3E50A61
:1001090092E0F50A8007C3E50A92E0F50AA280B3F6
:100119009280802A7D027E967F4DDFFEDEFCDDFA2D
:10012900803A7D047E2B7F9DDFFEDEFCDDFA802C8C
:100139007D077E567F3CDFFEDEFCDDFA801EE5088A
:10014900450960D07401650870047400650960D2BE
:100159007402650870047400650960D401DE80FECC
:00000001FF
