:100000000200E0020000000000000002000000000A
:1000100000000002000000000000000200000000DC
:0E0020000000000200000000000000020000CE
:10002E00BD000BB90029E88CF084F8ACF022E4CDC9
:10003E00FF75F008E828F8E933F9ED33FDE99CED9A
:10004E009F4005FDE99CF908D5F0E9E4C9FC22ECD6
:10005E00FFF5F0E98420D21CF9ACF075F008E82821
:10006E00F8EC33FC40079F5006D5F0F222C39FFCFC
:05007E0008D5F0EA22A4
:08008300E493F608A3D9F92269
:10008B00C2D5ED30E709B2D5E4C39CFCE49DFDE994
:10009B0030E715B2D5E4C398F8E499F912002EC3F2
:1000AB00E49CFCE49DFD800312002E30D507C3E4D5
:0600BB0098F8E499F92217
:1000C100758001D3E5B092E2F5B0C3E50892E1F5A0
:0F00D10008750900750A00D3E50892E0F50822CA
:1000E00075818011C1E5B020E22CE50820E1257C76
:1000F000027D00A809A90A118BA804A90585000999
:1001000085010A740128F509740039F50AD3E50858
:1001100092E1F5088007C3E50892E1F508E50830AB
:10012000E00F7801E580088002C333D8FCF58080B9
:100130000D7801E580088002C313D8FCF580802A81
:100140007D027E967F4DDFFEDEFCDDFA803A7D0487
:100150007E2B7F9DDFFEDEFCDDFA802C7D077E5648
:100160007F3CDFFEDEFCDDFA801EE509450A60D03B
:100170007401650970047400650A60D2740265092F
:1001800070047400650A60D4E58064807007C3E57C
:100190000892E0F508E58064017007D3E50892E075
:0601A000F50801E580FEF8
:00000001FF
