:1000000002009B020044000000000002000000000B
:1000100000000002006F000000000002000000006D
:0E0020000000000200000000000000020000CE
:08002E00E493F608A3D9F922BE
:0E0036007580FF750800D288D28A75A88522D1
:10004400C000C0D0C0E0C0F0C082C083E508240175
:10005400F8850008D3E50894024003750802D083AC
:0B006400D082D0F0D0E0D0D0D000322D
:10006F00C000C0D0C0E0C0F0C082C083C3E5089418
:10007F0001F8850008D3E50894005003750800D0F7
:0C008F0083D082D0F0D0E0D0D0D000327E
:10009B007581801136A280B39280802A7D027E9674
:1000AB007F4DDFFEDEFCDDFA802C7D047E2B7F9DF9
:1000BB00DFFEDEFCDDFA801E7D077E567F3CDFFE19
:1000CB00DEFCDDFA8010E50860D2E508640160DA39
:0A00DB00E508640260E280BD80FECB
:00000001FF
